:020000040000fa
:102c0000e61b040000000000d818040000000000cb
:102c100004190400000000001a190400000000005c
:102c2000ee18040000000000e61b04000000000095
:102c3000e61b040000000000e61b0400000000008a
:102c4000e61b040000000000e61b0400000000007a
:102c5000e61b040000000000361b0400000000001a
:102c6000e61b040000000000e61b0400000000005a
:102c7000e61b040000000000e61b0400000000004a
:102c8000e61b040000000000e61b0400000000003a
:102c9000e61b040000000000561a040000000000bb
:102ca0001c1a040000000000e61b040000000000e5
:102cb000e61b040000000000e61b0400000000000a
:102cc000e61b040000000000e61b040000000000fa
:102cd000e61b040000000000e61b040000000000ea
:102ce000e61b040000000000e61b040000000000da
:102cf000e61b040000000000e61b040000000000ca
:102d0000e61b040000000000e61b040000000000b9
:102d1000e61b040000000000301904000000000061
:102d2000e61b040000000000e61b04000000000099
:102d30006c19040000000000e61b04000000000005
:102d4000e61b040000000000e61b04000000000079
:102d5000e61b040000000000e61b04000000000069
:102d6000e61b040000000000e61b04000000000059
:102d7000e61b040000000000e61b04000000000049
:102d8000e61b040000000000e61b04000000000039
:102d9000e61b040000000000e61b04000000000029
:102da000e61b040000000000e61b04000000000019
:102db000e61b040000000000e61b04000000000009
:102dc000e61b040000000000e61b040000000000f9
:102dd000e61b040000000000e61b040000000000e9
:102de000e61b040000000000e61b040000000000d9
:102df000e61b040000000000e61b040000000000c9
:102e0000e61b040000000000e61b040000000000b8
:102e1000e61b040000000000e61b040000000000a8
:102e2000e61b040000000000e61b04000000000098
:102e3000e61b040000000000e61b04000000000088
:102e4000e61b040000000000fa1904000000000066
:102e5000e61b040000000000e61b04000000000068
:102e6000e61b040000000000e61b04000000000058
:102e7000e61b040000000000e61b04000000000048
:102e8000e61b040000000000e61b04000000000038
:102e9000e61b040000000000e61b04000000000028
:102ea000e61b040000000000e61b04000000000018
:102eb000e61b040000000000e61b04000000000008
:102ec000e61b040000000000e61b040000000000f8
:102ed000e61b040000000000e61b040000000000e8
:102ee000e61b040000000000e61b040000000000d8
:102ef000e61b040000000000e61b040000000000c8
:102f0000e61b040000000000e61b040000000000b7
:102f1000e61b040000000000e61b040000000000a7
:102f2000e61b040000000000e61b04000000000097
:102f3000e61b040000000000e61b04000000000087
:102f4000e61b040000000000e61b04000000000077
:102f5000e61b040000000000e61b04000000000067
:102f6000e61b040000000000e61b04000000000057
:102f7000e61b040000000000e61b04000000000047
:102f8000e61b040000000000e61b04000000000037
:102f9000e61b040000000000e61b04000000000027
:102fa000e61b040000000000e61b04000000000017
:102fb000e61b040000000000e61b04000000000007
:102fc000e61b040000000000e61b040000000000f7
:102fd000e61b040000000000e61b040000000000e7
:102fe000e61b040000000000e61b040000000000d7
:020000040000fa
:0430000010180000a4
:020000040000fa
:103020008fb420000eef20000e0188000000000089
:10303000000020000000e00002003200000120003b
:103040002002880014000700e20107000000e000f1
:1030500003003a00e058230001002000020037007e
:103060000000200001002000810f700001003200ec
:1030700014000700000020000000e0000200320001
:10308000000002000000000002300200000000000a
:103090000040da000000fe004440a900c0142000f7
:1030a0000000e0000300320000002000a0018800c2
:1030b0004440a800000006008a1f78008b1f78009b
:1030c0000000060091018800800478000000eb00f9
:1030d0001a003700e284440032a0b4009905ba0017
:1030e000e284440032a0b4009906ba00e2844400ad
:1030f00032a0b4000006eb00476fde00fd07b2000f
:10310000636ce10003003a00ebff07000000eb00f6
:103110000a003700606ce10004003a00005deb003b
:103120008b05e900fdff3e00040037006168e10007
:10313000010032000086eb000b00070019c7ba003f
:103140001905ba000e04e00003003a000a00e0008e
:10315000e0ff3a0000000600fe07b2009e01880072
:103160008a047800f5ff3700395dba008b05e90065
:103170000c003200295dba008b05e900080032001e
:103180000c00e00003003a00e284440032a0b400e6
:10319000f5ff370019ddba008b05e900faff3a00a8
:1031a0008904e800e184440032a0b4000000060075
:1031b0003400f800881f780008002000a80188006b
:1031c0004f0478008020a900074fa800082fef00c7
:1031d0000000fe003400f900004006003400f80052
:1031e000881f780008002000a80188004f0478009c
:1031f0008080a900074fa800082fef000000fe0004
:103200003400f900004006003400f800881f780000
:1032100008002000a80188004f0478008060a90001
:10322000074fa800082fef000000fe003400f9004f
:10323000004006003400f800881f780008002000d5
:10324000a80188004f0478008040a900074fa8001b
:10325000082fef000000fe003400f90000400600d7
:103260003600f800809fbe00829fbe00849fbe0093
:10327000869fbe003400f80000002000a0018800f6
:103280008760a900030fa800f2ff2f00f3f72700c3
:103290000000200001002400520107000002be00cf
:1032a00001a12000020320000101410084a8be000a
:1032b000828f5000fdff3a00442aef003400f900ed
:1032c0004f03be004f02be004f01be004f00be00c4
:1032d0003600f90000400600809fbe00821f780083
:1032e0003400f80000002000a001880087c0a90079
:1032f0001421ef0020528000e10f50000f00320037
:1033000008003900e20f500003003200e30f5000c4
:1033100033003a002f0037003202ab0015003a00ac
:103320001d0037003202ab002e003200b0118000c9
:103330003202ab00fdff3a002a003700462aef00b8
:103340003202ab000800320071a420000000eb0044
:10335000b2118000826878000000e8003202ab0001
:10336000fbff3a00305288002000200020528800e5
:103370001c0037003052800071a420008100400002
:10338000b2118000826878000000e8003202ab00d1
:10339000fbff3a0030528800305280008000e90084
:1033a00082a42000e2c07800eacf500003003a0077
:1033b0001fe1a9003100200021528800f10f2000f8
:1033c000810f500007003600462aef00442aef0024
:1033d00004003700462aef00442aef0001003700be
:1033e000074fa8003400f9004f0178004f00be00dd
:1033f000004006003600f800809fbe00829fbe009d
:10340000849fbe00869fbe003400f80000002000ac
:10341000a0018800210a07008c20a9003400f900cf
:103420004f03be004f02be004f01be004f00be0062
:103430003600f90000400600809fbe00829fbe005b
:10344000841f78003400f80000002000a0018800ec
:1034500070508000e401400064508000b190200072
:1034600081004000080037005181fb0022118800d4
:103470000000e800800f520003003e0070508800fa
:103480009580a90003003700808f5100f6ff3e00b1
:10349000705088008580a9003400f9004f02780040
:1034a0004f01be004f00be00004006003600f8008d
:1034b000809fbe00829fbe00849fbe00869fbe008c
:1034c0003400f80000002000a00188000021ef0077
:1034d0008460a90040488000e10f50000f003200d6
:1034e00008003900e20f500003003200e30f5000e3
:1034f00055003a00430037002202ab003d003a007d
:10350000520037002202ab00500032003011800020
:103510002202ab00fdff3a004c0037003111800061
:1035200010802000014878003211800002407800ad
:103530000242780023802000844978003211800004
:1035400002427800338020008449780032118000e4
:103550000242780043802000844978004200200025
:10356000124888000280200012417800814f5100eb
:1035700007003a0011002000214888008000eb007d
:10358000e50707000080fb0080508800020037003c
:103590000429ef00c10907000409e2002b003200f2
:1035a00080508000e10f2000810f50000b0032009e
:1035b000e40f50000300360090508800f209070025
:1035c0002200370005e1a9009560a9009c20a90010
:1035d000140a0700ba0907001c0037002000200069
:1035e00040488800003220001008880005e1a8004b
:1035f00016003700301180002202ab00fdff3a00b8
:103600001200370011488000321180001080200025
:1036100002f078008100e8003211800002f07800aa
:103620008100e8003211800002f078008100e8009b
:103630003211800002f078008100e8001148880013
:10364000d109070001003700940907008560a9002f
:103650003400f9004f03be004f02be004f01be0010
:103660004f00be003600f900004006003600f800aa
:10367000809fbe00829fbe00849fbe00869fbe00ca
:103680003400f80000002000a001880005e1a90036
:1036900040488000e20f50002c00320003003e0042
:1036a0000000e0000b0032003f003700e30f500045
:1036b00005003200e40f50003b003a002202ab004c
:1036c00028003a00300037002202ab000e003a001a
:1036d000160037002202ab00080032002202ab00c5
:1036e00003003200301180002202ab00fdff3a00df
:1036f0000021ef0005e1a8002c0037001000200099
:1037000040488800290037001048800001802000d0
:103710008100400032118000826878000000e800db
:103720002202ab00fbff3a0010488800f00f200097
:10373000100ae30003003a009560a9009c20a9004c
:10374000b80907005e090700180037005c09070088
:10375000046fa80004cfa80010c0b30006e9b700aa
:1037600012003700104880000180200081004000d6
:1037700032118000826878000000e8002202ab006d
:10378000fbff3a0010488800805080000209e300e7
:1037900003003a009560a9009c20a900a109070038
:1037a00047090700010037003c0907008460a900b1
:1037b0003400f9004f03be004f02be004f01be00af
:1037c0004f00be003600f900004006000040da005d
:1037d0000000fe00000005004f89de008201780035
:1037e00044003700889fbe008a9fbe008c1f78006f
:1037f000a5000700ac00330003866c006450e100b4
:10380000240032006420e100270032006150e10012
:10381000220032006120e100210032008b8542004d
:10382000eb07b1000134b800003ab80008044200c8
:1038300089844a00013ab8000030b800888040000e
:1038400009014a0004003300000040008180480064
:10385000020149008b05e900c909dd008301700000
:103860000100320013002000c814de004814dd00ff
:103870004709de001200b200c808de0008847000ac
:103880005b00070001f0a1000cf0a70001f0a00010
:103890008e0037006120e100900032000801be0078
:1038a0000200be00f7ff37006150e100fcff3a0064
:1038b0008a0037006022b800060220000000d00015
:1038c0008180d2000482d2008582d2000000a00054
:1038d0000202520083825a000300310002024200b9
:1038e00083824a000000a1000603e900f3ff3a00ca
:1038f00000000600881f7800030478000300e00041
:1039000007003d0060001000e08018006001190011
:10391000e081190002003b0001f02d000300370098
:103920000400070008f0a70001f0a0004f04780091
:1039300000000600889fbe008a9fbe0000827000c3
:103940000402710004827100260032000004be00ef
:103950000200be006011b8006b0920009502200033
:103960000182cf000a0039000541b1000082cf007a
:10397000070039000541b1000982cf000400390079
:103980000541b1000882cf00010039000541b100b6
:1039900005425200120032000a003b008281710091
:1039a000610164008100d1000080d3008984d300cc
:1039b0000884d3008b05e8000442e800f7ff3a00d2
:1039c000070037000804440089844c0000004800c8
:1039d000818048008b05e9000442e900f9ff3a00c4
:1039e000030007004f05be004f04be0000000600a4
:1039f00081002000618055000b003d000b0020007d
:103a000061fe2f000100e1001d0034008281710081
:103a1000610164008904d1000884d3000000e8003b
:103a2000faff3a007100200061006400030070009a
:103a3000020060000900320061044400e0844c0090
:103a40000988a500050032008b05e8006808e10040
:103a500002003a008904d1000884d300f20f20004c
:103a60000258e10005003d00c75ddd00f907b20026
:103a70008980750008007800000006000bf8270018
:103a80008b007800000005000004be00160007004f
:103a90000003be000405be000200be0012000700c5
:103aa000844f7500000006000200be006450e10073
:103ab000050036006420e100020036000968a3001a
:103ac00001003a000800be000160a0004f06780027
:103ad0004f05be004f04be0000000600f0ff2f009f
:103ae000f1ff2700f9ff3700c70ade00f107b20037
:103af000f50fb20008003200e1cf420002003200b0
:103b00000170a00024000500810f70000100320048
:103b10000408050044000500810f700002003a000f
:103b2000140005008502e9000000400081c0480043
:103b3000fcff3b000170a000240005001004b10050
:103b4000070035009001b100040034007000b1009e
:103b5000030035009001b10001003c001000050099
:103b600000000500800078001106b1000300350058
:103b70009101b10001003c000050a10000000600ce
:103b80000e00fa00889fbe008a9fbe008c1f78003e
:103b9000a0bf9f00010478000205be0080047800e9
:103ba000880078006c8057003301070068066000c9
:103bb000000278000430a100e10f520013003a0027
:103bc000f481570008017800afb897000900780029
:103bd000410007000000e00002003a006000b80069
:103be000030037000fb897009fb89700fafe070050
:103bf000c0b79f00d1b79f006fb19700ffb197008a
:103c00000a0141008b81490016003700e20f520083
:103c100018003a0014002000f481570008017800d1
:103c2000afb8970009007800f40207000000e00038
:103c300002003a006000b800030037000fb8970098
:103c40009fb89700e4fe0700c0b79f00d1b79f0060
:103c50006fb19700ffb19700788057002e020700e0
:103c60000a01be004fb09700dfb09700bd0107000a
:103c70000d003700e30f520003003a00000020005f
:103c800001f82700050037006000b800e40f52007b
:103c900005003a00f0ff2f00f1ff2700c0b79f009a
:103ca000d1b79f0002003700c0b79f00d1b79f0077
:103cb0004fb09700dfb097000c00e0000100320029
:103cc00001f0a2004f0678004f05be004f04be0071
:103cd0000080fa0000000600ea874700889fbe00c7
:103ce0008a9fbe008c9fbe008e1f7800d0b79f00b9
:103cf000e2b79f00030478006722b90084067800c9
:103d00000006eb00010037001c0020008105780050
:103d10008b00780000c3b300b14f1000faff3200ef
:103d2000000ceb0038147800080578008004eb00e4
:103d3000290037008d8f540017003d0072002000cd
:103d4000110009008204d8000100e00003003a00dd
:103d500064054500001deb000015eb001b02fb0095
:103d6000cfa2de000403b1000580b100a200200054
:103d7000030020001a00be00f4b79f0085bf9f001b
:103d8000e40307007fb297008fba9700001d42003e
:103d900001954a000d0037001000200001002000ae
:103da000180c4000589448008d8f540008003a00c9
:103db00040c3b3009b4f10000500340012002000e8
:103dc000030020001a0d41005a9549008904e800bb
:103dd0008b05e8001c0020001b4078008000fb00e1
:103de0000103b100e98f5000d2ff36008d8f5400df
:103df000010034008d047800e1c2b300814f50000f
:103e000001003a008b05e8000900e0002b003a00b1
:103e10000b007800050037000081eb008081eb008b
:103e2000180c4100589449001c00200080057800bf
:103e300001c3b300b0cf1000f7ff32001f003700fe
:103e40008d8f54001c003d007200200011000900fd
:103e50008204d8000100e00003003a006405450038
:103e6000001deb000015eb007bfa97000402fb003d
:103e7000cfa2de000403b1000580b100a200200043
:103e8000030020001a00be00f4b79f0085bf9f000a
:103e9000a00307007fb297008fba9700001d420071
:103ea00001954a008904e8000080eb008080eb0067
:103eb000180c4000589448001c0020000b077800a4
:103ec0008e0578003b00fb000003b100e90f5000b5
:103ed000dbff36008c0578007d0020001100090012
:103ee0008d04d8000100e0001600320081865600e3
:103ef0001a01be00e00f5100e08f590007003200a8
:103f00000d00e9004200dd0041f920000080400082
:103f10001000be007f030700008dbe0089844600ac
:103f20006168b900181c10001894180005003700cb
:103f3000e78454007200200003002000180c4100a8
:103f400058944900e68f5400040034002a00be0053
:103f5000e00f5000e08f5800f5ff32000c00e00049
:103f6000340032001e40780051c6b300814f50002b
:103f70000300320051c4b300814f50002c003a00be
:103f80005e457800b0c2b300804f55000300320098
:103f9000d1c2b300814f550002003a000e07e8007d
:103fa00001003700004578000e0678006000b80078
:103fb0008005eb000f003700f20f2e00535f20004a
:103fc000820f5000838f580009003c00a20020009f
:103fd000030020004f0307000d01fb00cf91de001e
:103fe0000203b1000380b10002004000838048005a
:103ff0001b0020000c0778000e067800bc467800f5
:104000000d01fb000203b100e90f5100eaff360089
:10401000d2c2b300824f550002003a006000100087
:10402000e0801800180c4000589448000100370048
:104030008c057800efb197000300e0000500320026
:104040000b00e00001003a005fb797006fb09700e7
:104050000e08780072002000110009008204d800c8
:104060004f0778004f06be004f05be004f04be004c
:10407000af00b10000000600889fbe008a9fbe000e
:104080008c9fbe0000047800010678009804780038
:10409000890578000b0578008a057800bb46780012
:1040a0000d00fb00930007000000e000f9ff3a005c
:1040b000d0c2b30080cf560003003a000b05780051
:1040c00081002000050037008000eb00b0c2b30083
:1040d00080cf560001003a000b0578001a407800a6
:1040e000e2c6b300824f500003003200e2c4b300c6
:1040f000824f500027003a008a0078005141780032
:1041000010c6b300804f5100040032000000eb00e5
:1041100013c4b300834f51005c003a005141780052
:10412000e0c6b300804f5100040032000000eb00f5
:10413000e3c4b300834f510054003a008104780077
:1041400080c2b300d94f10000b003a00640545004f
:104150008a057800ba4678000d00fb00570007007a
:104160000000e000faff3a00f0c5b30080cf56002f
:10417000f7ff320001003700890578004000200079
:1041800091c2b3009bcf100040003a008b04e800be
:104190003e00370092c6b300824f50000300320049
:1041a00092c4b300824f50003c003a005a4178005c
:1041b000e0c6b300804f5100040032000000eb0065
:1041c000e3c4b300834f510030003a005a417800f5
:1041d00060c6b300804f5100040032000000eb00c5
:1041e00063c4b300834f510028003a008a0478006a
:1041f000010078003000b300d940780092c6b300c7
:1042000082cf50000300320092c4b30082cf50002e
:104210001e003a008900780051417800e3c6b300df
:10422000834f510003003200e3c4b300834f5100b9
:1042300016003a005141780093c6b300834f5100f5
:104240000300320093c4b300834f51000f003a00c3
:104250005141780043c7b300834f5100030032003f
:1042600043c5b300834f510008003a005141780024
:1042700093c7b300834f51000300320093c5b300ce
:10428000834f510001003a008104e8000c00e00077
:1042900005003200090e78000300370001007800a5
:1042a0000000a0008a047800090c78004f06be00c8
:1042b0004f05be004f04be00000006000003b10021
:1042c0000b0035009000b100080034008000b10000
:1042d000070035009001b100040034007000b10007
:1042e000030035009001b10001003c001000050002
:1042f000000005006900e100040035006d00e100e8
:10430000030034000002b10001003200000005008b
:10431000100005000600fa00881f780000047800ed
:104320008800780068805700d2bf9f00e3bf9f00dd
:10433000d50007005fb99700efb997001800be00dd
:1043400028fd0700008cbe004fb99700cf91de001a
:1043500008007800700007004f0478000080fa0021
:10436000000006000400fa00889fbe008a1f780043
:10437000b0bf9f00c1bf9f000204be00e00f51000c
:10438000e08f59005e0032006011b8005f02070044
:104390000000e0005a003200e00f5400e08f5c00a3
:1043a0002a003d0060041400e0841c000005eb00be
:1043b0000000200001f823000808a30005003200d7
:1043c000c251dd0042fb2000028141001201be000b
:1043d00004fd07008904d1000884d300e00f5400d5
:1043e000e08f5c00030032000a05e800e50f55008d
:1043f000f1ff3a000001be000000200001f8230098
:10440000000207000001be006a805700c1ff0700dc
:104410000000e00032003d00e00f5400e08f5c003f
:1044200037003200e2112b00f3a420006a8057000d
:10443000b8ff07000000e00029003d0061045400bf
:10444000e0845c00f7ff3a00290037000005eb002c
:104450000000200001f823000808a3000500320036
:10446000c251dd0042fb2000028141001201be006a
:10447000dcfc07008984d1000884d300e00f5400dd
:10448000e08f5c00030032000a05e800e50f5500ec
:10449000f1ff3a000001be006a8057009dff07004f
:1044a0000000e0000e003d00e00f5400e08f5c00d3
:1044b00013003200e25a2c00d34927006a805700cb
:1044c00094ff07000000e00005003d006104540077
:1044d000e0845c004240a900f6ff3c000400370085
:1044e0000000e00002003a00000120000300370055
:1044f000e10f500002003a00800020008600070013
:104500003fb89700cfb897004f0578004f04be0022
:104510000080fa00000006000400fa00889fbe0038
:104520000004780088047800590078004702de0013
:1045300084007800f10fb200e14f420009003a0018
:1045400080007800f107b200200020004b003a0004
:10455000100020001800e000480032002000200079
:10456000460037000100e0000a003a000800780029
:10457000c2bf9f00d3bf9f00770007008000780074
:104580000000eb004fb99700dfb997000100e00091
:104590003a003c004f88de00028140008301480061
:1045a000e00f2000800f5100e08f59000a00340016
:1045b0001900e00003003d000000200001f82f007a
:1045c000020037000000200001f82700008cbe0028
:1045d0001000200029003700e00f5100e08f590043
:1045e000050034004711dd00f007280019006000c5
:1045f000800c71002000370099007800000028002e
:1046000000806000f10fb2000170a000810c780002
:1046100061015100e0815900f70f4100e08f49002e
:1046200004003d00800c7800000ceb000000eb0063
:1046300012003700ef0f410003003d00010c78002d
:10464000800ceb00700141000201ea000900320019
:10465000f0001100990178008119dd0098007800c0
:104660008208de00018c7100990078000209de00ea
:10467000820c7800990c70000080eb004f04be00a3
:104680000080fa0000000600889fbe000004be0003
:1046900000f82700590060004700de00f20f2000fc
:1046a000820f50000a003a00000ceb00f2072000d5
:1046b000190161002000200015003a0010002000c0
:1046c0001100e0001200320020002000100037002e
:1046d0000000e00004003a00010078001e0007001e
:1046e0000000e00008003c00f2072800190161000a
:1046f00001f02300810c710021f82f00010c400013
:104700000080eb0002003700000ceb000000eb0023
:104710004f04be0000000600e50060000300320008
:1047200010022000607e8800000006007800600013
:104730000200320020022000607e88000000060097
:10474000707e80000000e0000100320000000100e7
:10475000c0fc20000000060080007800d101780035
:104760000400280004826100f307b2008308780087
:10477000120020000e003a00900178000300e000d3
:104780001b003200830878000008eb0012ff2f00a6
:10479000070037008381410090027800cf2ade00b5
:1047a0008588710090017800038841000201e900ca
:1047b00091017800f5072000858f5100f5ff360044
:1047c00005003700cf19dd009002d1000588710087
:1047d0009108d1000201e80091017800f50f200056
:1047e000858f5100f7ff3e00f007200080886100b0
:1047f000910872000200780000000600e887470078
:10480000889fbe008a9fbe008c9fbe008e1f7800ce
:10481000e0b79f0082047800030478006722b900a3
:104820000006eb00010037001c0020008101780029
:1048300000c3b300b14f1000fbff3200000ceb00cf
:1048400038147800880578000005eb002a0037004e
:10485000840f550016003d00720020001100090071
:104860000205d8000100e00003003a00e48545009d
:10487000801deb008015eb001b06be00446bdd00c5
:10488000cc63de00870373004463dd00c1f72000c2
:104890000180520061f62000614078000000fb00ba
:1048a000cf80de00801d430081954b001000370053
:1048b0001000200001002000180c4000589448000f
:1048c000840f55000b003a00c1f720000180520010
:1048d00061f6200061407800e74f50000500340089
:1048e00010002000010020009b0d4000db954800d7
:1048f0000a05e8001c002000830678008d0178007e
:10490000334778008e00fb0062012000c0f72000d2
:10491000f3b79f0084bf9f00b000070080027800bb
:10492000ffb197000fba97000500e000c8ff3a00fa
:10493000840f55000100340004057800e0c2b30084
:10494000804f570001003a008d06e8000a00e000a1
:1049500029003a000d007800050037000081eb00c7
:104960008081eb00180c4100589449001c00200085
:104970008006780001c3b300b0cf1000f7ff32000b
:104980001d003700840f55001a003d007200200002
:10499000110009000205d8000100e00003003a0000
:1049a000e4854500801deb008015eb001b03be0075
:1049b0004439dd00cc31de00830171004431dd007b
:1049c000c1f720000180520061f6200061407800ac
:1049d0000000fb00cf80de00801d41008195490072
:1049e0000a05e8000081eb008081eb00180c410013
:1049f000589449001c0020000d0778008e067800ae
:104a0000bd00fb0062012000c0f7200084bf9f00b2
:104a100072000700800278000fba97000500e000de
:104a2000d8ff3a000c017800730020001100090043
:104a30000305d8000100e00013003200018051009e
:104a4000c200dd001b02be008100e900030033004c
:104a50000402420085824a00fbff3700848dbe00bd
:104a60000a054000cf80de00181c100018941800c2
:104a70000500370067055500700020000100200088
:104a8000180c400058944800e60f5500040034000c
:104a90002b00be00e00f5000e08f5800f5ff320001
:104aa0001800be00420add00ce02de008502720060
:104ab0004202dd00048cbe000c00e0003800320031
:104ac0001e40780001c7b300814f50000300320040
:104ad00001c5b300814f500030003a000e06780047
:104ae000dc457800b0c2b30080cf5500030032002f
:104af000d1c2b30081cf550002003a000c06e80095
:104b000001003700804578006000b8000001eb002c
:104b100013003700f20f2e00535f2000820f500069
:104b2000838f58000d003c00a200200003002000ed
:104b300084bf9f00f5b79f00760007000d01fb00c2
:104b4000cf91de000203b1000380b10002004000fb
:104b500083804800ffb297000fba97001200200030
:104b60000c0778000e067800bc4678008d01fb002b
:104b70000303b100e98f5100e6ff3600d3c2b30052
:104b800083cf550002003a0060001000e08018005a
:104b9000041c400005944800010037000c01780017
:104ba0000900e000040032000200e00001003a00c9
:104bb0006fb797008e0c780072002000110009007a
:104bc0000205d8004f0778004f06be004f05be0013
:104bd0004f04be008f00b100000006000300370044
:104be000b0cf1000050032000201e900800178001a
:104bf0000200e000faff3a00000005000300780020
:104c000000000600889fbe008a9fbe008c1f7800af
:104c10009dfb0700a4fb330003866c006450e10099
:104c20002e0032006420e100330032006150e100c8
:104c30002f0032006120e1003100320085855500ef
:104c4000eb07b00009002000080420000500370031
:104c50000804440089844c000a0031000603430024
:104c600087834b000001530081815b00f8ff330014
:104c70000203be000800a0000804440089844c0020
:104c8000f6ff3900c639dd008301730001003200f0
:104c9000130020008904d1000884d3000998a300e0
:104ca000050032000800a7000300a0008904d1001d
:104cb0000884d3008b05e8008904d1000884d30060
:104cc0000001eb000281d20049fb070001f0a100c6
:104cd0000cf0a70001f0a0007cfb37006420e1008d
:104ce0007efb32000801be000200be00f7ff370065
:104cf0006120e10079fb32006000b800f3ff37006b
:104d00000000200001f82700f0ff37001400200009
:104d100006003700020ab900001bb9000200b80003
:104d2000810042008100430000000600889fbe0011
:104d30008a9fbe00841f780053fb07004f00780055
:104d400011003300f0ff2f00838f6c0006003b0042
:104d5000040565000a00a7000800370009f0a60056
:104d60001000200008003700820f5400838f5c0081
:104d7000030039001000200001003e000000200068
:104d800009f0a7000000ea004f05be004f04be0076
:084d90000000e0000000060035
:020000040000fa
:104d9800616e00002c7300006e6e00006e2e000025
:104da8006e6e00006e6e00002c7300006e6e0000c8
:104db8006e2e00006e6e00006e6e00002c730000f8
:104dc8006e6e00006e2e00006e6e00006e6e0000ab
:104dd8002c7300006e6e00006e2e00006e6e0000d8
:104de8006e6e00002c7300006e6e00006e2e0000c8
:104df8006e6e00006e6e00002c7300006e6e000078
:104e08006e2e00006e6e00006e6e00002c730000a7
:104e18006e6e00006e2e00006e6e00006e6e00005a
:104e28002c7300006e6e00006e2e00006e6e000087
:104e38006e6e00000d0a0000006100006e2c00007c
:104e4800736e00006e6e00002e6e00006e6e000025
:104e58006e2c0000736e00006e6e00002e6e000057
:104e68006e6e00006e2c0000736e00006e6e000007
:104e78002e6e00006e6e00006e2c0000736e000037
:104e88006e6e00002e6e00006e6e00006e2c00002c
:104e9800736e00006e6e00002e6e00006e6e0000d5
:104ea8006e2c0000736e00006e6e00002e6e000007
:104eb8006e6e00006e2c0000736e00006e6e0000b7
:104ec8002e6e00006e6e00006e2c0000736e0000e7
:104ed8006e6e00002e6e00006e6e00006e2c0000dc
:104ee800736e00006e6e00002e6e00006e6e000085
:104ef8006e2c0000736e00006e6e00002e6e0000b7
:104f08006e6e00006e2c0000736e00006e6e000066
:104f18002e6e00006e6e00006e2c0000736e000096
:104f28006e6e00002e6e00006e6e00006e2c00008b
:104f3800736e00006e6e00002e6e00006e6e000034
:104f48006e2c0000736e00006e6e00002e6e000066
:104f58006e6e00006e2c0000736e00006e6e000016
:104f68002e6e00006e6e00006e0d00000a0000003c
:104f78004d3000000d00000044690000737000000f
:104f88006c610000636500006d6500006e740000d0
:104f9800204d00006f6e0000697400006f72000001
:104fa800696e000067200000494c000043200000a3
:104fb800286300002932000030310000372000004b
:104fc80041550000524100002d4c00005353000091
:104fd800540000000a0000000000000073000000f8
:104fe80063000000000700005404000000120000e5
:104ff8000400000041060000001100000400000049
:1050080048050000006b000004000000ff000000dd
:1050180000000000a000000040010000e0010000c6
:085028008002000020030000db
:020000040000fa
:10503000060fa8008f0507000000e0000d003a00f1
:10504000c1f02000800140000302e80002f52000ca
:10505000e2487a008381e800e2c179009340980039
:105060000000e8008180e800e30f5000f5ff3a00ff
:10507000060fa900000006000400fa000080eb0003
:10508000e0bf9f00e1012000a0f12000960607008c
:10509000f0bf9f006ff89700384fe30005003a001b
:1050a0007ff89700394fe30002003a000000eb0060
:1050b000e0bf9f006fb897000080fa000000060074
:1050c000062fa800186fef001bcfbf00e54f500060
:1050d00005003a00062fa900c1f120009140780098
:1050e00080f1200001487800000006000200fa006c
:1050f000881f7800068fa80006afa80006cfa8007a
:105100005e0407000000e00043003a0000cfb30057
:10511000af0407000000e0003f003a00c0ff9f001e
:105120004ff89700ff4f50000b003e004ffc9700d8
:105130008a0407000884fb00a1f1200080707c0035
:105140004ff897000040e800c0ff9f004ff897001d
:10515000ff4f5000f5ff3600c7ff07000000e000da
:1051600002003a0006afa900068fa9000040eb003c
:10517000c0ff9f004ff89700ff4f50000b003e000c
:105180004ffc9700750407000884fb00a1f1200084
:1051900080707c004ff897000040e800c0ff9f003f
:1051a0004ff89700ff4f5000f5ff3600b2ff0700a1
:1051b0000000e00003003a0006cfa900068fa90016
:1051c0001500370006afab0013003a002b040700b0
:1051d00000cfb3007e0407000040eb00c0ff9f003b
:1051e0004ff89700ff4f50000b003e004ffc970018
:1051f0005a0407000884fb00a1f1200080707c00a5
:105200004ff897000040e800c0ff9f004ff897005c
:10521000ff4f5000f5ff3600180407004f047800d8
:105220000080fa0000000600304d2c004007b60058
:1052300023003200003a80004400dd000010b2007c
:10524000317880000180a1008100700031788800f1
:10525000003a80004300de006800600011788000a2
:105260000130a10081007000117888004007d5004e
:10527000013a8000e18060000100a200008060002f
:105280004900dd00317880000190a10081007000ac
:1052900031788800013a8000cf08de00003a8000b3
:1052a0004e00de0000807000610060004a00dd00fa
:1052b0003178800001a0a100810070003178880061
:1052c0004027ef00000006000e00fa00881f78005b
:1052d000010478006022b800b4bf9f00c5bf9f00e2
:1052e0000200e00013003a008002eb0085bf9f003f
:1052f0008fb89700e28f500020003e00ea815700ef
:105300000fb997008200e8000fba9700040140002f
:105310001241780082f178008fba97008502e80088
:1053200085bf9f008fb89700e28f5000f4ff3600d2
:10533000120037000001eb0082bf9f000fba9700f8
:10534000e20f52000d003e00ea8157008fba97002d
:105350008500e8000fba97006201120060417900f1
:1053600082f178008fba97008502e80085bf9f0020
:105370008fb89700e28f5000f4ff36003fba9700d5
:10538000cfba970094bf9f00a5bf9f001fb897009a
:10539000afb8970010f907000200200003b82300ff
:1053a00010f90700d0bf9f00e1bf9f005fb89700d2
:1053b000efb89700008cbe004f0478000080fa0020
:1053c000000006000600fa000200e00011003a00aa
:1053d000d2bf9f00dfb99700e38f51001e003e004f
:1053e000648257005fb99700dfba970085014000db
:1053f00093417800037279005fb997000201e800d9
:10540000d2bf9f00dfb99700e38f5100f5ff360050
:10541000110037008002eb00d5bf9f005fb99700f5
:10542000e30f51000c003e00648257005fb9970003
:10543000dfba9700e3811200e0c1790003727900be
:105440005fb997000201e800d2bf9f00dfb9970063
:10545000e38f5100f5ff36006fb99700ffb9970051
:105460008288be000080fa00000006000600fa00f4
:105470001002be00e4bf9f00f5bf9f000200e000e5
:1054800012003a008002eb00d5bf9f005fb8970082
:10549000e30f50001e003e005fb9970002804000fd
:1054a000e48157005fba97000481410012487800f8
:1054b000dfba97008502e800d5bf9f005fb897006c
:1054c000e30f5000f4ff3600110037000001eb003d
:1054d000d2bf9f00dfb99700e38f51000c003e0060
:1054e0005fba970063001200e4825700dfb99700ab
:1054f00003814200927078005fba97000402e800ce
:10550000d4bf9f00dfba9700e38f5200f4ff36004c
:105510000080fa000000060042c5b300824f500030
:1055200018003200b27f2a000002eb000402e800fb
:1055300092417800834f5000060032006301410021
:10554000e1cf4100f9ff3a00e2cfb300834f5000b2
:105550000a003a000100e00004003a006322b900aa
:10556000907f2a0060417a00040037006322b9006e
:105570000482e800807f2a0060417a0002407800bf
:10558000000006000002eb00f2ff37000e00fa00f8
:10559000889fbe008a9fbe00000578000204be00fe
:1055a0000000eb00f0b79f006011b80082bf9f00c1
:1055b00093bf9f00a2bf9f00b3bf9f00800c7800e5
:1055c0001a40780011c4b300814f50007e003200b1
:1055d00005003e00f14f50000d003200f24f500028
:1055e000b5003a004900370041c5b300814f500073
:1055f0008f003200f7c04000814f50006a00320037
:1056000081c4b300814f5000ab003a005200370014
:1056100020488000e10f5000aa003a0011cfbf00df
:105620002044980002f12000124178003244980092
:10563000f3f0200093417800434498000ecfbf0060
:1056400050449800d2f02000124178006244980043
:10565000c3f02000934178007344980050c0b30019
:10566000004c98001bcfbf00104c980082f1200026
:1056700012417800224c9800c3f120009341780039
:10568000334c9800e07e2a0010407800404c98008f
:10569000f07e2a0010407800504c98000000eb008b
:1056a000d0b79f00e0002000e0b79f005fb09700f8
:1056b000017c2a00614078000004e0000d00320007
:1056c00001017800efb097005fb09700e2417800e9
:1056d00003f478008100e800e1b79f000000e800d3
:1056e000d0b79f005fb09700624078000004e000f0
:1056f000f4ff3a006fb0970000c0e9001044980032
:105700006fb09700800c78006e0037002048800052
:10571000e10f50006b003a00007b800010449800bd
:1057200012f02000124178002244980003f020007b
:10573000934178003344980007cfbf00404498005d
:1057400062f020001241780052449800600020006e
:10575000800c78005b00370020488000e10f50008b
:1057600058003a000180200091407800e1cf4000cd
:1057700057003a008a007800514178008241e900e0
:1057800030002000eacf410051003e000240780086
:1057900000e8b700914078001144980020002000f4
:1057a000800c78004700370020488000e10f50004f
:1057b00044003a007f004000107b88001a80fb0004
:1057c000507888003f00370020488000e10f5000eb
:1057d0003c003a002a4090000080fb00f0b79f0098
:1057e000ffb09700f00f2000808f500005003200be
:1057f0007fb19700127b88001a80fb0050788800e8
:1058000030003700f00f2000107b8800037b800001
:10581000f3b79f007fe89700104498006fe9970066
:105820002244980030002000800c780025003700ca
:1058300020488000e10f500022003a00017b8000e8
:10584000e28f500022003a008001eb00d3b79f00a6
:105850005fb09700ec0f500014003e004ba12000f9
:105860005fb097004200dd00008045001001be00df
:10587000a2bf9f00b3bf9f00dfb09700c208dd004a
:105880008100e80081004400120020006c80570075
:10589000f6fe0700dfb197008301e800d3b79f0051
:1058a0005fb09700ec0f5000edff360010032000b2
:1058b000800c78000300370020488000e10f500082
:1058c000020032001a4c7800080037001000200057
:1058d00021802000914078000174a000014c7800e4
:1058e0001044980020002000800c78004f05be0076
:1058f0004f04be000080fa0000000600e487470065
:10590000889fbe008a9fbe008c9fbe008e1f7800bd
:1059100000047800114078008005eb000004e000ee
:105920005800320081047800eac2b3000086eb0020
:10593000eec6b300cdc2b3008a4f5000140032004f
:1059400007003e00ed4f5000140032008d4f500014
:105950000c003200ea4f500036003a0013003700c6
:105960008e4f50001e00320031c7b300814f5000ef
:1059700024003200f2c05000814f50002d003a0048
:105980000e00370098cf16002c003a003800370080
:10599000984f15002b003a0035003700d0c0b300f7
:1059a000984f100029003a0031003700a1c0b30021
:1059b00098cf100027003a002d0037001880fb0018
:1059c00080bf9f005df807000000e0002300320068
:1059d0000fb8970063f80700004c780024003700e8
:1059e000184078008080fb000103b100e98f50006f
:1059f0001f00360051c4b300814f500019003a0017
:105a00001b00370018407800d1c2b300814f50000e
:105a10001700320081c0e900814f500014003200ad
:105a20000080fb000003b100e90f50000f003e00b2
:105a30000f0037008c0578000d0037008c057800ca
:105a40000b0037008c057800090037008c057800c2
:105a5000070037008c057800050037008c057800ba
:105a6000030037008c057800010037008c057800b2
:105a7000594078000004e000020032000804e80009
:105a8000adff37000b0078004f0778004f06be00cf
:105a90004f05be004f04be004f00b10000000600dd
:105aa0000001eb0000602900010020001403070042
:105ab000000320001e21b700f08f2f00b200b600b7
:105ac0000030b3009005880087c0a90097c0a800e7
:105ad000f2ff2f00f3f72700000020000100240050
:105ae00040f707000002be0001a1200002032000d1
:105af0000101410084a8be00828f5000fdff3a00e2
:105b00000080eb0000000600889fbe008a9fbe0058
:105b10008c9fbe00205280000000e0000300320095
:105b2000e30f500059003a000f0037003100200009
:105b3000c07b2a005a0307008760a9009760a8006d
:105b40001fe1a9001421ef0000682100d00888009f
:105b50001fe1a80087c0a90097c0a800100020007e
:105b60002052880049003700305280004105200053
:105b7000810f500004003200a1092000810f500065
:105b80000b003a0005003700c16c2a0080a42000f9
:105b90005aff07008b0020000700370011722a000f
:105ba00080a4200055ff0700fb0020000200370002
:105bb0000080eb008005eb000000e00023003a00cd
:105bc0000b00e0001f0032004aa12000d800200096
:105bd0008004eb005cc4b300eda3200080a420008f
:105be0000000440070f097008c4f500009003a000c
:105bf0006400fc00f2ff2f00f3f7270000002000f4
:105c000001002400f7f60700008dbe000000fc0034
:105c100007003700088046006011b8008000eb00e4
:105c2000d7f707006400fc00008dbe000000fc00f8
:105c30008904e8006a04440064054500898f550022
:105c4000e6ff3e00030fa9000f003700030fa80076
:105c5000f2ff2f00f3f727000000200001002400ce
:105c6000e0f607000002be0001a1200002032000b0
:105c7000010141006400fc0084a8be000000fc009b
:105c8000828f5000fbff3a00442aef004f06be000f
:105c90004f05be004f04be00000006000829ef00bb
:105ca0000021ef0000322000100888009460a80056
:105cb00005e1a8009560a8009c20a800000006004f
:105cc0000829ef002202ab000300320030118000ef
:105cd0002202ab00fdff3a000021ef00001420007b
:105ce000100888009460a80005e1a8009560a8004d
:105cf0009c20a8000000060031788000c408de0067
:105d0000e18060000000eb0006afab000400320051
:105d100000042000060fb6000000ea004f00de007d
:105d20000080700006003a001acfbf000400320065
:105d3000e94f400002003e0000e8b70001003700d4
:105d400000e8ef000229ef000c2aef00fe03070035
:105d50000421ef009460a900f1ff280020058000d5
:105d60008080600000002500010070002005880090
:105d7000f0fc2f000421b6009c20a800c7ff0700fc
:105d8000040fa8000000060005e1a9000021ef00b3
:105d9000905080006400500090508800e10f500047
:105da0000b00320005003900e20f50000d003200f8
:105db000e30f500015003a000f003700000a2000e2
:105dc0001008880040002000404888001300370079
:105dd000001420001008880040002000404888007f
:105de0000e003700001e2000100888004000200030
:105df000404888000900370000282000100888006b
:105e00004000200040488800040037000032200095
:105e100010088800300020004048880005e1a800f4
:105e20000000060011488000108020002e030700ab
:105e30000000e0002a003a0011488000e380500092
:105e4000a3902000d290200020802000cffd0700ea
:105e5000514880000100e0002100320063804000d2
:105e6000605088001280200012417800c09020000d
:105e7000024878008100e800c09020001a03070063
:105e800061508000a290200000f178004800de0000
:105e90000201e800807079000cc9bf000080fb009f
:105ea000201188000dc9bf000080fb002011880070
:105eb0000ec9bf000080fb00201188000fc9bf0081
:105ec0000080fb0020118800e48f500004003600a1
:105ed00040002000705088008580a9009580a800af
:105ee00000000600046fab0045003200046fa900fb
:105ef00004cfab0018003a000180200091407800e8
:105f0000c290200001497800507880000de9b70068
:105f1000b1062000810f500003003a00400020002d
:105f2000605088001900370011042000810f5000d4
:105f300016003a00007b8000c800de0001417800b6
:105f4000e3902000824978000fe9b700600020004c
:105f5000605088000d0037000380200093417800d6
:105f6000c09020000348780002c8bf000074a00061
:105f70000de9b7006190200091407800e290200088
:105f80000149780050002000605088006150800076
:105f90008180e900c0902000d3020700615080009a
:105fa000a290200000f178004800de000201e80025
:105fb000807079000e2aef000cc9bf000080fb0042
:105fc000201188000dc9bf000080fb00201188004f
:105fd0000ec9bf000080fb00201188000fc9bf0060
:105fe0000080fb0020118800e48f50000400360080
:105ff00040002000705088008580a9009580a8008e
:1060000000000600889fbe003202070086fc0700e1
:1060100040012000007b8800f00f2000207b8800da
:10602000107b88000004780009022000007b8000bb
:10603000e40f50000f00320005003e000000e000b9
:106040000c003200e20f500007003a000400370055
:1060500074005000e10f500003003e0005003700bf
:10606000a9fe070003003700082fef00074fa80024
:106070000000fe00803efc00107b8000880f500076
:106080004900320004cfa900046fa80030c0b3005b
:1060900006e9b700007b8000e20f500016003200d6
:1060a000e40f5000260032000000e00032003a0009
:1060b000107b8000e20f500006003200e30f50001a
:1060c000070032000000e00009003a00602fef00f6
:1060d0002a00370020002000007b880027003700be
:1060e00020002000407888000000fe0023003700d8
:1060f00004cfa80021003700107b8000e20f500081
:1061000006003200e30f5000070032000000e000fc
:1061100009003a00602fef0018003700200020002f
:10612000007b8800150037002000200040788800a0
:106130000000fe001100370004cfa8000f00370058
:10614000107b8000e30f500005003200e50f500087
:1061500007003a00ed010700602fef00070037004d
:1061600020002000407888000000fe000300370077
:1061700004cfa8000100370004cfa800107b8000e6
:10618000890f500007003a0004cfa90050002000fa
:10619000407888000000fe000000eb004f04be00c5
:1061a00000000600187b88000000fc00007b8000d7
:1061b00074005000e10f500002003600dc010700bf
:1061c00048ff0700207b8000600fe30029003200b9
:1061d000007b8000e40f50002400320005003e00e8
:1061e0000000e0001c003200e20f500021003a00e5
:1061f0001b003700f40f500003003200f50f500071
:106200001c003a0008003700803efc0085020700b1
:1062100000020700600ff800640ff9005001200031
:10622000007b880013003700af010700b2fe0700b3
:10623000600ff800640ff900020fab00020032009b
:10624000602fef000200370040002000007b880034
:106250000000fc0007003700642fef000500370046
:1062600020002000207b8800020037004000200032
:10627000207b88000060fe006cff3700881f7800dc
:10628000c502a900c102a90050ba210001002000e6
:10629000bc020700c102a800d00d200001002000b0
:1062a000b80207000084eb00c302ab000700320015
:1062b000102e200001002000b20207000004eb00b5
:1062c000c302ab00010032000084eb0060e6200056
:1062d00001002000ab020700080078004f0478009e
:1062e00000000600889fbe008a9fbe000005eb00ec
:1062f0008085fb004837200009002000c102a9006a
:106300000ad8de000008a300080032008005200043
:10631000010020009b020700c102a800f03a200003
:106320000100200097020700060037000800be00a9
:1063300094020700c102a8003009200001002000db
:10634000900207000a05e800e80f5500ebff3a004d
:106350004f05be004f04be0000000600889fbe002f
:106360008a9fbe000004eb008044eb000a1020006e
:106370001b002000c102a9008005200001002000b0
:1063800080020700c102a800400820000100200090
:106390007c02070011168000010065000200320037
:1063a0000858dd0080c47400b032200001002000d5
:1063b000740207000804e800e80f5400edff3a00fb
:1063c000094078004f05be004f04be0000000600e3
:1063d000881f780000447800a8ff0700800078003c
:1063e0000080eb000100e00009003a00c0ccb300df
:1063f000bcff070008407800baff07000040eb0030
:10640000b8ff07000040eb00b6ff07000000eb00fc
:106410004f047800000006007100200080f5200085
:1064200030020700800078000000eb00f2f5200049
:1064300012417800814f5100010032000080eb00d2
:1064400000000600889fbe008cff070080007800d7
:106450000080eb000100e00017003a0030c3b300f9
:10646000a0ff070078f52000e8044400bbff070008
:10647000006c7800890f5400fcff3a00e6ff07002b
:10648000800078000000eb000100e0000a0032000c
:10649000f0c3b30058efb70059efb7005aefb70099
:1064a0005befb7005cefb7005defb7005eefb700e2
:1064b0005fefb7000080eb004f04be000000060055
:1064c0007100200000f5200006020700800078001f
:1064d0000000eb0072f5200012417800814f51005e
:1064e000010032000080eb0000000600881f7800e9
:1064f000d402a900d002a90050ba21000100200056
:1065000020020700d002a800d00d200001002000ca
:106510001c0207000084eb00d202ab00070032002f
:10652000102e200001002000160207000004eb00de
:10653000d202ab00010032000084eb0060e62000d4
:10654000010020000f020700080078004f047800c7
:1065500000000600889fbe008a9fbe000005eb0079
:106560008085fb004837200009002000d002a900e8
:106570000ad8de000008a3000800320080052000d1
:1065800001002000ff010700d002a800f03a20001f
:1065900001002000fb010700060037000800be00d4
:1065a000f8010700d002a8003009200001002000f7
:1065b000f40107000a05e800e80f5500ebff3a0078
:1065c0004f05be004f04be0000000600889fbe00bd
:1065d0008a9fbe008c1f78000005eb008045eb0011
:1065e00088052000090020001c002000d002a9001e
:1065f0000800be00e3010700d002a8004008200008
:1066000001002000df010700d202ab0002003200cf
:106610000a60dd0080c57500b03220000100200056
:10662000d80107000a05e800e80f5500efff3a001f
:106630000b4078004f0678004f05be004f04be00a7
:1066400000000600881f780000447800a7ff0700bc
:10665000800078000080eb000100e00003003a00b9
:1066600008407800bbff07000000eb004f047800f3
:1066700000000600889fbe0030c3b300f1ff070092
:10668000800078000080eb000100e0001a003a0072
:10669000f8f42000e8044400ccff0700006c780008
:1066a000890f5400fcff3a0090ff0700800078003b
:1066b0000080eb000100e0000f003a0080ff0700bf
:1066c000800078000000eb000100e0000a003200ca
:1066d000f0c3b30050efb70051efb70052efb7006f
:1066e00053efb70054efb70055efb70056efb700c0
:1066f00057efb7000080eb004f04be00000006001b
:10670000881f7800020478004409dd00cc01de0017
:10671000830171004401dd0000002000110e200003
:1067200064f407008000e900c1118800008028009f
:10673000080070008011880000402200901188003d
:106740004f04780000000600021020009311800022
:1067500083006100fdff32000080fb00a011880073
:1067600000000600889fbe008044780030c6b30059
:1067700080cf5400070036000980fb004200de0095
:10678000b14721000100b8000100d1000043b00072
:10679000edff07000980fb004200de00b147210049
:1067a0000100b8000104d100c009200000c0b900f8
:1067b00000c44400e94f5400060036008880fb0006
:1067c000d0cc2c000008b8004308de000043b00025
:1067d000ddff070000c3b300004144000884fb0054
:1067e000d0cc2c000044b800c348de00600f20006d
:1067f0000088b90000404100d3ff07004f04be00ed
:1068000000000600904178000304e0000900320017
:10681000021020009411800084006100fdff32000e
:106820008381fb00a3118800d04178000304e000bd
:10683000f8ff3a0000000600904178000304e000f1
:1068400009003200021020009411800084006100d1
:10685000fdff32008381fb00a3118800d041780046
:106860000304e000f8ff3a00000006000100e00029
:106870000a0032000002eb00031020009511800096
:1068800005816100fdff32003081fb00a21188000c
:106890000402e800848f5000f8ff3e00000006006c
:1068a0000100e0000a0032000002eb0003102000ab
:1068b0009511800005816100fdff32003081fb00f1
:1068c000a21188000402e800848f5000f8ff3e0007
:1068d00000000600002fef00022fef00062fef0050
:1068e0003cafef000000060003cfa900fff907004e
:1068f000cff90700f2f90700068fab0002003a005b
:1069000067fc0700020fa80000000600060fe20067
:1069100006003200f08f2f00062fb600a03f850042
:10692000060fb6000080ea00e0798800000006004b
:106930003178800000788000027b8000e20f5100f7
:1069400008003a00127880004811de006101610001
:106950004c11dd000378800003c0a10083017100a9
:1069600003788800923f850002816000e37980000f
:106970000281610002003a000000a100010037001e
:106980000000a000b23f850002816000e379800032
:106990000281610002003a000010a10001003700ee
:1069a0000010a000e2798000e10f410002003a00ef
:1069b0000030a10007003700e27980000281ea0080
:1069c0000101610002003a000030a100010037001f
:1069d0000030a0000078880031788800007b8000bb
:1069e00074005000e10f500009003600307880003c
:1069f0003c0fb6003007b20003003a000078800078
:106a0000630060000200320040002000007b88002c
:106a1000000006008000280000328800f07020008e
:106a2000103288004086a800000006000200fa002c
:106a30004826ef00800020000080090000000000d0
:106a4000008009000000000060328000f0bf9f005d
:106a50007fb9970050552500ffb89700008060006f
:106a600000004000a1aa2a00810061008100d1003d
:106a700081007000f1bf9f007fb997003133230080
:106a80007fb8970081006000c208dd00c0cc2c00f8
:106a9000000061004200de0000807000f0bf9f0037
:106aa0007fb99700f1f020007fb897008100600067
:106ab000c408dd00000f2f00000061004400de006c
:106ac00000807000f0bf9f007fb89700c800dd0015
:106ad0004800de0081007000f1bf9f007fb8970082
:106ae0000080fa00000006005200280022328800d0
:106af00082aa2e00623288000100e0000500320008
:106b0000b041780082642000034978008100e900e8
:0c6b1000fbff3a00c5ff07000000060074
:020000040000fa
:106b1c00600f000006000000000000000c0f0000d9
:106b2c004400000000000000140a000034010000c2
:106b3c00000000000008000014020000000000002b
:106b4c00500f00000800000000000000580f00006b
:106b5c000800000000000000940f0000200000005e
:106b6c00020000000a000000006400000000e800c1
:106b7c00030000001027000000a086000100400068
:106b8c00420f0000809698000000e100f50500001f
:106b9c00b40f0000180000000200000000002000ec
:106bac0041000000c8420000401c460020bcbe0052
:106bbc004cca1b000e5aae00c59d7400cc0f0000d1
:106bcc000400000000000000660f00002e00000012
:106bdc000200000000010200030405000607080083
:106bec00090a0b000c0d0e000f0a0b000c0d0e0009
:106bfc000f3031003233340035363700383961000c
:106c0c0062636400656641004243440045460000ef
:086c1c00000000000000000070
:020000040000fa
:106c24004427ef00e024ef00e224ef00e424ef0027
:106c340081e0a90083e0a800d4e2a800d0e2a90082
:106c4400d0c2a8007040a800cc02a800c802a900c5
:106c5400c822a800cc82a800c882a900c082a800cb
:106c6400c102a800d002a800c842a800d042a800cf
:106c7400d122a800c522a800c122a900c422a800cc
:106c8400c022a900cc62a800c862a900d4a2a800ae
:106c9400d0a2a900d482a800d082a900d062a80002
:106ca400d422a900d022a900c162a800c9e2a90087
:106cb400c962a900c942a800c9a2a900c8e2a800e3
:106cc400c982a900cde2a900cde2a800c9c2a800ea
:106cd400c0c2a800c542a800c142a9000000060025
:106ce400881f78000041eb000100e0001200320030
:106cf4008003eb0088002000c6c8b300304278004f
:106d040088017800844269000281fb000201d100fd
:106d14000500a700064169008301e9000300320071
:106d24000482fb000402d100f6ff37008703e80069
:106d3400878f5000f1ff3e000280fb004f04780073
:106d440000000600300020004011880080a02800c8
:106d540000118800004c280010118800f1ff280061
:106d64004005800080806000000026000100700063
:106d7400400588008560a9008580a9000000060000
:020000040000fa
:106d8400f03fb1000180b10006003500ee030900b8
:106d940000000000403fb1000180b100fbff3d0056
:106da4001000b000203fb000020035000080090050
:086db4000000000000000600d1
:020000040000fa
:106dbc00814178002203200003497800000178000b
:106dcc009201ba00030078009280ba00000006001d
:020000040000fa
:0200000401f009
:04000000feffff0000
:020000040000fa
:0200000401f009
:04000800ffffff00f7
:020000040000fa
:0200000401f009
:04000c001bff0000d6
:020000040000fa
:0200000401f009
:040010009aff000053
:020000040000fa
:0200000401f009
:04001400eaff0000ff
:020000040000fa
:0200000401f009
:04001800cdff000018
:020000040000fa
:0200000401f009
:04001c00fdff0000e4
:020000040000fa
:0200000401f009
:0400200020ff0000bd
:00000001FF
